{"abi":[{"type":"function","name":"emitOperation","inputs":[{"name":"authorityId","type":"bytes32","internalType":"bytes32"},{"name":"operationId","type":"bytes32","internalType":"bytes32"},{"name":"target","type":"address","internalType":"address"},{"name":"dataHash","type":"bytes32","internalType":"bytes32"}],"outputs":[],"stateMutability":"nonpayable"},{"type":"event","name":"OperationExecuted","inputs":[{"name":"authorityId","type":"bytes32","indexed":true,"internalType":"bytes32"},{"name":"operationId","type":"bytes32","indexed":true,"internalType":"bytes32"},{"name":"target","type":"address","indexed":true,"internalType":"address"},{"name":"dataHash","type":"bytes32","indexed":false,"internalType":"bytes32"},{"name":"timestamp","type":"uint256","indexed":false,"internalType":"uint256"}],"anonymous":false}],"bytecode":{"object":"0x608060405234801561000f575f80fd5b5061021a8061001d5f395ff3fe608060405234801561000f575f80fd5b5060043610610029575f3560e01c80635f8dcf151461002d575b5f80fd5b61004760048036038101906100429190610132565b610049565b005b8173ffffffffffffffffffffffffffffffffffffffff1683857f8f8fac189c2ea18eb90b51db88f455451dec4645ceb9fc80cde591e259ef181984426040516100939291906101bd565b60405180910390a450505050565b5f80fd5b5f819050919050565b6100b7816100a5565b81146100c1575f80fd5b50565b5f813590506100d2816100ae565b92915050565b5f73ffffffffffffffffffffffffffffffffffffffff82169050919050565b5f610101826100d8565b9050919050565b610111816100f7565b811461011b575f80fd5b50565b5f8135905061012c81610108565b92915050565b5f805f806080858703121561014a576101496100a1565b5b5f610157878288016100c4565b9450506020610168878288016100c4565b93505060406101798782880161011e565b925050606061018a878288016100c4565b91505092959194509250565b61019f816100a5565b82525050565b5f819050919050565b6101b7816101a5565b82525050565b5f6040820190506101d05f830185610196565b6101dd60208301846101ae565b939250505056fea26469706673582212205a757a99a7b3bb547af6ae042961ca761e6755055bda7ccf8ad8c0c9e2eef44064736f6c63430008140033","linkReferences":{}},"methodIdentifiers":{"emitOperation(bytes32,bytes32,address,bytes32)":"5f8dcf15"},"id":1}